:020000040800F2
:1000000000A00020512C00086D0800086F080008AF
:100010007108000873080008750800080000000057
:100020000000000000000000000000007708000849
:1000300079080008000000007B0800087D0800081F
:10004000A12C0008A12C0008A12C0008A12C00085C
:10005000A12C0008A12C0008A12C0008A12C00084C
:10006000A12C0008A12C0008A12C0008A12C00083C
:10007000A12C0008A12C0008A12C0008A12C00082C
:10008000A12C0008A12C0008A12C000800000000F1
:10009000000000000000000000000000A12C00088B
:1000A000A12C0008A12C0008A12C0008A12C0008FC
:1000B000A12C00080000000000000000A12C000896
:1000C000A12C0008A12C0008A12C0008A12C0008DC
:1000D000A12C0008A12C0008A12C0008A12C0008CC
:1000E000A12C0008A12C0008000000000000000066
:1000F0000000000000000000000000000000000000
:1001000000000000000000000000000000000000EF
:100110000000000000000000A12C0008000000000A
:10012000A12C0008A12C0008A12C0008A12C00087B
:10013000A12C0008000000000000000000000000EA
:10014000A12C0008A12C0008A12C0008A12C00085B
:10015000A12C0008A12C0008A12C0008A12C00084B
:10016000A12C0008A12C00080000000000000000E5
:1001700000000000A12C00080000000000000000AA
:10018000A12C0008A12C0008A12C000800000000F0
:1001900010B5054C237833B9044B13B10448AFF3C1
:1001A00000800123237010BD7000002000000000BB
:1001B0002836000808B5034B1BB103490348AFF3C9
:1001C000008008BD000000007400002028360008F0
:1001D000034613F8012B002AFBD1181A0138704787
:1001E00001F0FF01102A2BDB10F0070F08D010F8E8
:1001F000013B013A8B422DD010F0070F42B3F6D1EC
:10020000F0B441EA012141EA014122F007047FF004
:1002100000070023F0E80256083C85EA010586EA5B
:10022000010685FA47F5A3FA87F586FA47F6A5FA97
:1002300087F68EB9EED1F0BC01F0FF0102F00702A3
:1002400032B110F8013B013A83EA010313B1F8D14E
:100250000020704701387047002D06BF354603382F
:10026000073815F0010F07D1013015F4807F02BF68
:10027000013015F4C03F0130F0BC0138704700BFB9
:1002800053B94AB9002908BF00281CBF4FF0FF31FD
:100290004FF0FF3000F074B9ADF1080C6DE904CEF9
:1002A00000F006F8DDF804E0DDE9022304B0704751
:1002B0002DE9F047089D04468E46002B4DD18A4219
:1002C000944669D9B2FA82F252B101FA02F3C2F14C
:1002D000200120FA01F10CFA02FC41EA030E9440DD
:1002E0004FEA1C48210CBEFBF8F61FFA8CF708FBFE
:1002F00016E341EA034306FB07F199420AD91CEBD6
:10030000030306F1FF3080F01F81994240F21C8107
:10031000023E63445B1AA4B2B3FBF8F008FB10334F
:1003200044EA034400FB07F7A7420AD91CEB040484
:1003300000F1FF3380F00A81A74240F20781644454
:10034000023840EA0640E41B00261DB1D4400023D9
:10035000C5E900433146BDE8F0878B4209D9002D3D
:1003600000F0EF800026C5E9000130463146BDE8C7
:10037000F087B3FA83F6002E4AD18B4202D3824231
:1003800000F2F980841A61EB030301209E46002DE0
:10039000E0D0C5E9004EDDE702B9FFDEB2FA82F235
:1003A000002A40F09280A1EB0C014FEA1C471FFA93
:1003B0008CFE0126200CB1FBF7F307FB131140EA7A
:1003C00001410EFB03F0884208D91CEB010103F147
:1003D000FF3802D2884200F2CB804346091AA4B209
:1003E000B1FBF7F007FB101144EA01440EFB00FEDD
:1003F000A64508D91CEB040400F1FF3102D2A64542
:1004000000F2BB800846A4EB0E0440EA03409CE7E0
:10041000C6F12007B34022FA07FC4CEA030C20FA8D
:1004200007F401FA06F31C43F9404FEA1C4900FAAD
:1004300006F3B1FBF9F8200C1FFA8CFE09FB18112A
:1004400040EA014108FB0EF0884202FA06F20BD99D
:100450001CEB010108F1FF3A80F08880884240F2ED
:100460008580A8F102086144091AA4B2B1FBF9F031
:1004700009FB101144EA014100FB0EFE8E4508D92C
:100480001CEB010100F1FF346CD28E456AD90238B1
:10049000614440EA0840A0FB0294A1EB0E01A14296
:1004A000C846A64656D353D05DB1B3EB080261EB04
:1004B0000E0101FA07F722FA06F3F1401F43C5E9DE
:1004C000007100263146BDE8F087C2F12003D84014
:1004D0000CFA02FC21FA03F3914001434FEA1C4756
:1004E0001FFA8CFEB3FBF7F007FB10360B0C43EA48
:1004F000064300FB0EF69E4204FA02F408D91CEBF8
:10050000030300F1FF382FD29E422DD902386344F5
:100510009B1B89B2B3FBF7F607FB163341EA034195
:1005200006FB0EF38B4208D91CEB010106F1FF38E4
:1005300016D28B4214D9023E6144C91A46EA0046DB
:1005400038E72E46284605E70646E3E61846F8E66D
:100550004B45A9D2B9EB020864EB0C0E0138A3E7B6
:100560004646EAE7204694E74046D1E7D0467BE797
:10057000023B614432E7304609E76444023842E70F
:10058000704700BFF0B58BB0002405940694079423
:1005900008940994354BDA6C42F00402DA64DA6CA0
:1005A00002F004020192019ADA6C42F08002DA64ED
:1005B000DA6C02F080020292029ADA6C42F00102D6
:1005C000DA64DA6C02F001020392039ADA6C42F008
:1005D0000202DA64DB6C03F002030493049B012241
:1005E00011464FF0904001F043FE2246B0214FF0FB
:1005F000904001F03DFE1E4E22464FF40051304621
:1006000001F036FE4FF4005705974FF4041306939C
:10061000079405A9174801F04DFD0125059506959C
:1006200007950223089305A94FF0904001F042FD81
:10063000B023059306950794089405A94FF09040C0
:1006400001F038FD402305930694079505A94FF066
:10065000904001F02FFD059706950794089405A991
:10066000304601F027FD0BB0F0BD00BF0010024086
:1006700000040048000800480FB410B582B004AB75
:1006800053F8042B01930A4C4FF48071204602F07A
:1006900061FB2046FFF79CFD4FF0FF3382B22146FD
:1006A000044802F0C0F802B0BDE8104004B0704742
:1006B0008C000020F001002072B6FEE708B510485B
:1006C000104B03604FF482734360002383604FF448
:1006D000E062C260036143614FF4007282611022E4
:1006E000C2610362436283620722C262036308231A
:1006F000436300F0AFFA00B908BDFFF7DDFF00BFAC
:100700008C0100200030014008B50B480B4B036002
:100710004FF4E133436000238360C36003610C2224
:1007200042618361C3610362436202F020F900B950
:1007300008BDFFF7C1FF00BFF001002000440040EA
:1007400000B597B04422002105A802F0CFFA00239B
:10075000009301930293039304934FF4007001F00C
:100760009DFDD8B9022305934FF480730893462367
:1007700009930023109305A800F026FF80B90F23EA
:100780000093012301930021029103910491684693
:1007900001F088FA30B917B05DF804FBFFF78CFF61
:1007A000FFF78AFFFFF788FF10B582B000F02EFE3A
:1007B000FFF7C6FFFFF7E6FEFFF780FFFFF7A4FF96
:1007C000032002F035FA18B92148FFF755FFFEE77C
:1007D0002048FFF751FF01A90DF1070002F0E2F9EF
:1007E0009DF807101C48FFF747FFBDF804101B4891
:1007F000FFF742FF002002F08BF90446014618483B
:10080000FFF73AFF012002F0EDF8611CC9B20020A9
:1008100002F038F9002002F0E5F81248FFF72CFF4B
:100820004FF4FA6000F01AFE012002F0FDF842F2E7
:10083000107000F013FE002002F0F6F84FF40051A3
:10084000094801F01AFD4FF47A7000F007FEF5E751
:1008500040360008743600088C360008A4360008BC
:10086000B8360008D436000800040048FEE7FEE76A
:10087000FEE7FEE7FEE770477047704708B500F0F7
:10088000DBFD08BD82B00A4B1A6E42F001021A6607
:100890001A6E02F001020092009A9A6D42F08052A4
:1008A0009A659B6D03F080530193019B02B07047E2
:1008B0000010024000B589B0002303930493059310
:1008C000069307930268154B9A4202D009B05DF86F
:1008D00004FB03F560431A6E42F480521A661A6EE6
:1008E00002F480520192019ADA6C42F00102DA6459
:1008F000DB6C03F001030293029B41F602030393B6
:10090000022304930593032306930523079303A966
:100910004FF0904001F0CEFBD8E700BF003001401F
:1009200010B594B0044600210F91109111911291CD
:100930001391342202A802F0D9F92268184B9A4286
:1009400001D014B010BD0223029302A801F098FA5E
:1009500010BB144B9A6D42F400329A659A6D02F402
:1009600000320092009ADA6C42F00102DA64DB6C29
:1009700003F001030193019B0C230F9302231093B7
:100980000023119303231293072313930FA94FF00E
:10099000904001F08FFBD4E7FFF78EFED9E700BF50
:1009A00000440040001002402DE9F04782B00546A7
:1009B000884617461E4600F04BFD0A9B1B1A03EBA8
:1009C000060900F045FD82462B4B1B68C3F3CB3371
:1009D00009FB03F301932B689C6838EA04030CBFFE
:1009E0004FF0010C4FF0000CBC4540D0B6F1FF3F7A
:1009F000F1D000F02DFDA0EB0A0048450AD2B9F174
:100A0000000F07D0019A02B14A46019B013B0193B6
:100A10009146E0E72A68536823F0E00353606B686F
:100A2000B3F5827F0BD0AB6AB3F5005F14D001231E
:100A300085F85D30002385F85C30032018E0AB6852
:100A4000B3F5004F02D0B3F5806FECD12A6813687C
:100A500023F040031360E6E72A68136823F4005389
:100A600013602A68136843F400531360DFE7002023
:100A700002B0BDE8F08700BF080000202DE9F04774
:100A800082B006460C4615461F4600238DF80330FB
:100A900000F0DEFC0A9B1B1A03EB070800F0D8FCF1
:100AA0008146D6F800A0314B1B6803EB8303C3EBF0
:100AB000C3031B0D08FB03F3019302E0B7F1FF3FF3
:100AC00012D133689B6803EA040CAC454AD0B4F5F4
:100AD000C06FF3D1002DF1D19AF80C30DBB28DF854
:100AE00003309DF80330E9E700F0B2FCA0EB090009
:100AF00040450AD2B8F1000F07D0019A02B1424630
:100B0000019B013B01939046DBE73268536823F079
:100B1000E00353607368B3F5827F0BD0B36AB3F51B
:100B2000005F14D0012386F85D30002386F85C3026
:100B3000032018E0B368B3F5004F02D0B3F5806F1F
:100B4000ECD13268136823F040031360E6E73268A3
:100B5000136823F4005313603268136843F400539E
:100B60001360DFE7002002B0BDE8F0870800002036
:100B700070B582B004460D46164600920B46002220
:100B80004FF4C051FFF77AFFB0B900962B46002210
:100B900080212046FFF708FFA8B900962B460022C7
:100BA0004FF4C0612046FFF769FF50B1236E43F058
:100BB00020032366032004E0236E43F02003236612
:100BC000032002B070BD236E43F020032366032090
:100BD000F7E770B582B004460D4616464368B3F594
:100BE000827F0DD000962B46002280212046FFF701
:100BF000DBFE90B96368B3F5827F14D002B070BD9C
:100C00008368B3F5004F02D0B3F5806FEAD1226854
:100C1000136823F040031360E4E7236E43F02003DE
:100C200023660320EAE7A368B3F5004F02D0B3F5CB
:100C3000806FE3D100962B4600224FF4C06120461E
:100C4000FFF71CFF0028D9D0236E43F02003236652
:100C50000320D3E700286AD010B50446436A33B9AD
:100C60004368B3F5827F05D00023C36102E000230F
:100C7000036143610023A36294F85D30002B4DD0E3
:100C8000022384F85D302268136823F04003136068
:100C9000E368B3F5E06F47D90022B3F5706F04D075
:100CA000B3F5E06F01D00023A362636803F482739D
:100CB000A16801F404410B43216901F002010B43D7
:100CC000616901F001010B43A16901F400710B435B
:100CD000E16901F038010B43216A01F080010B4307
:100CE000A16A01F4005120680B430360638B03F099
:100CF0000403616A01F010010B43616B01F008010C
:100D00000B43E16801F470610B43216813434B60AE
:100D100000202066012384F85D3010BD84F85C302B
:100D20002046FFF7C7FDABE74FF48052B5E701203F
:100D300070472DE9F04383B01D4690F85C30012BDD
:100D400000F0F680044688469146012380F85C3026
:100D500000F07EFB074694F85D60F6B2012E40F08D
:100D6000D480B8F1000F00F0D180B9F1000F00F08D
:100D7000CD80032384F85D3000232366C4F83880D7
:100D8000A4F83C90A4F83E902364A4F84430A4F85E
:100D900046302365E364A368B3F5004F1ED0236893
:100DA0001A6812F0400F03D11A6842F040021A602C
:100DB000E368B3F5E06F42D9636813B1B9F1010F8D
:100DC00023D1A26B23681288DA60A36B0233A3637A
:100DD000E38F9BB2013B9BB2E38716E02268136866
:100DE00023F0400313602268136843F480431360C8
:100DF000D5E700F02DFBC01BA84203D3B5F1FF3FA0
:100E000040F08E80002D00F08D80E38F9BB2002B90
:100E100066D023689A6812F0020FEAD0A26B12889B
:100E2000DA60A36B0233A363B4F83EC01FFA8CFCF4
:100E30000CF1FF3C1FFA8CFCA4F83EC0E5E76368A8
:100E400013B1B9F1010F33D1E38F9BB2012B0CD950
:100E5000A26B23681288DA60A36B0233A363E38F6B
:100E60009BB2023B9BB2E38722E0A26B236812781D
:100E70001A73A36B0133A363E38F9BB2013B9BB255
:100E8000E38715E0A36B1B781373A36B0133A36394
:100E9000E38F9BB2013B9BB2E38709E000F0D8FAF5
:100EA000C01BA84202D3B5F1FF3F3DD1002D3DD07C
:100EB000E38F9BB2A3B12268936813F0020FEDD0C9
:100EC000E38F9BB2012BDDD9A36B1B88D360A36B8F
:100ED0000233A363E38F9BB2023B9BB2E387E7E756
:100EE0003A4629462046FFF743FE08B120232366F1
:100EF000A36833B901932368DA6801929B68019370
:100F0000019B236E13B9002600E00226012384F81A
:100F10005D30002384F85C30304603B0BDE8F083D8
:100F20000326F3E70326F1E70326EFE70326EDE7C1
:100F30000226F1E72DE9F8431F46089D90F85C3042
:100F4000012B00F06481044688469146012380F815
:100F50005C3000F07DFA064694F85D30DBB26268E2
:100F6000012B0AD0B2F5827F40F03881A268002AB6
:100F700040F03D81042B40F03C81B8F1000F00F0BF
:100F80003A81B9F1000F00F03881002F00F037816D
:100F900094F85D30DBB2042B02D0052384F85D3079
:100FA00000232366C4F84090A4F84670A4F8447067
:100FB000C4F83880E787A787E3642365E368B3F55F
:100FC000E06F01D8012F23D92268536823F480539E
:100FD000536023681A6812F0400F03D11A6842F078
:100FE00040021A60E368B3F5E06F58D963680BB14B
:100FF000012F0BD1A26B23681288DA60A36B023336
:10100000A363E38F9BB2013B9BB2E387012731E0EF
:101010002268536843F480535360DAE7A26B128866
:10102000DA60A36B0233A363E38F9BB2013B9BB2F5
:10103000E387002723689A6812F0010F11D0B4F8F3
:10104000462092B26AB1DA68236C1A80236C0233AC
:101050002364B4F846309BB2013B9BB2A4F84630FF
:10106000012700F0F5F9831BAB4203D3B5F1FF3F35
:1010700040F0C780E38F9BB22BB9B4F846309BB2E7
:10108000002B00F0A18023689A6812F0020FD1D0E3
:10109000E28F92B2002ACDD0002FCBD0BEE763689A
:1010A0000BB1012F0FD1E38F9BB2012B0DD9A26B96
:1010B00023681288DA60A36B0233A363E38F9BB2C9
:1010C000023B9BB2E387012749E0A26B23681278B9
:1010D0001A73A36B0133A363E38F9BB2013B9BB2F3
:1010E000E387F0E7E28F92B2012A0CD9A26B128853
:1010F000DA60A36B0233A363E38F9BB2023B9BB224
:10110000E38700273DE0A26B12781A73A36B0133CB
:10111000A363E38F9BB2013B9BB2E387002730E0E0
:101120002268536843F48053536001270DE0226C1A
:101130001B7B1370236C01332364B4F846309BB2DD
:10114000013B9BB2A4F84630012700F081F9801BD7
:10115000A84202D3B5F1FF3F55D1002D55D0E38F02
:101160009BB223B9B4F846309BB2002B2CD0236835
:101170009A6812F0020F04D0E28F92B20AB1002FE7
:10118000B0D123689A6812F0010FDED0B4F846207F
:1011900092B2002AD9D0B4F8462092B2012AC6D918
:1011A000DA68236C1A80236C02332364B4F8463067
:1011B0009BB2023B9BB2A4F84630B4F846309BB2D7
:1011C000012BADD90127C0E7324629462046FFF75B
:1011D000CFFC20B120232366012000E00220012360
:1011E00084F85D30002384F85C30BDE8F883022089
:1011F000F5E70220F3E70120F1E70120EFE7012006
:10120000EDE70320EBE70320E9E70320E7E702200F
:10121000EBE72DE9F04383B00446884691461D462E
:101220004068B0F5827F43D094F85C30012B00F029
:10123000C380012384F85C3000F00AF9074694F873
:101240005D60F6B2012E40F0A480B8F1000F00F00E
:10125000A180B9F1000F00F09D80042384F85D3077
:1012600000232366C4F84080A4F84490A4F8469074
:10127000A363A387E387E3642365E368B3F5E06FC3
:1012800024D92268536823F480535360A368B3F5CC
:10129000004F21D023681A6812F0400F03D11A685A
:1012A00042F040021A60E368B3F5E06F29D94AE0E2
:1012B000A368002BB8D1042384F85D300095134651
:1012C0000A462046FFF736FE064669E02268536864
:1012D00043F480535360D9E72268136823F0400336
:1012E00013602268136823F480431360D2E700F090
:1012F000AFF8C01BA84202D3B5F1FF3F54D1002D77
:1013000054D0B4F846309BB2002B36D023689A688C
:1013100012F0010FEBD0226C1B7B1370236C013396
:101320002364B4F846309BB2013B9BB2A4F846302C
:10133000E7E700F08DF8C01BA84202D3B5F1FF3FEC
:1013400036D1002D36D0B4F846309BB2ABB123680D
:101350009A6812F0010FECD0DA68236C1A80236CC3
:1013600002332364B4F846C01FFA8CFC0CF1FF3C36
:101370001FFA8CFCA4F846C0E5E73A462946204609
:10138000FFF727FC08B120232366236E13B900263C
:1013900000E00226012384F85D30002384F85C30ED
:1013A000304603B0BDE8F0830326F3E70326F1E7F8
:1013B0000326EFE70326EDE70226F1E7104B1B7843
:1013C0000BB90120704710B504464FF47A70B0FB9A
:1013D000F3F30C4A1068B0FBF3F000F0F1FF68B9CA
:1013E0000F2C01D901200AE0002221464FF0FF30E6
:1013F00000F0AEFF044B1C60002000E0012010BD97
:1014000000000020080000200400002010B5094A58
:10141000136843F480731360032000F087FF0020FB
:10142000FFF7CCFF10B10124204610BD0446FFF7A2
:1014300029FAF9E700200240034B1B78034A1168A0
:101440000B441360704700BF0000002074020020AE
:10145000014B1868704700BF7402002038B504467D
:10146000FFF7F6FF0546B4F1FF3F02D0044B1B78AF
:101470001C44FFF7EDFF401BA042FAD338BD00BF6C
:101480000000002030B583B00446204B9B6D13F064
:10149000805F0BD000F0FAFEB0F5007F17D0802CF3
:1014A0001FD82DD0702C2DD000211BE0174DAB6D17
:1014B00043F08053AB65AB6D03F080530193019B08
:1014C00000F0E4FEAB6D23F08053AB65E4E7802CC5
:1014D00003D9A02C03D9022104E0002102E001215C
:1014E00000E003210A4A136823F007030B4313604B
:1014F000136803F007038B4206D1002003B030BD10
:101500000221EFE70121EDE70120F7E7001002409B
:1015100000200240284A9368D26802F0030213F0C8
:101520000C030AD00C2B06D0042B1FD0082B20D084
:101530000020024610E0012AF6D11F4A126812F07C
:10154000080F0CD11C4AD2F89420C2F303221B4985
:1015500051F8222043B100200C2B0DD07047164AC1
:101560001268C2F30312F2E71046F5E714480022AE
:10157000F2E714480022EFE70F4BDB6803F00303A8
:10158000022B16D0032B00D10E4A0B49C868C0F3BA
:101590000210431CC868C0F3062002FB00F0B0FB39
:1015A000F3F0CB68C3F3416301335B00B0FBF3F0AE
:1015B000D4E7034AE9E700BF001002400C370008F7
:1015C0000024F40000127A00002800F05383F0B5E4
:1015D00083B00446964B9D6805F00C05DE6806F066
:1015E0000306036813F0100F5AD0E5B10C2D18D084
:1015F000E369002B00F0BB808D4A136843F00103C0
:101600001360FFF725FF0746894B1B6813F0020F95
:1016100040F09A80FFF71CFFC01B0228F4D903207A
:1016200035E3012EE4D1824B1B6813F0020F03D087
:10163000E369002B00F02083606A7D4B1B6813F088
:10164000080F5BD07A4B1B6803F0F00398425CD81C
:10165000774B1A6842F008021A601A6822F0F0020A
:10166000616A0A431A605A6822F47F42216A42EA98
:1016700001225A60002D60D0FFF74CFF6C4B9B6835
:10168000C3F303136B4AD35C03F01F03D8406A4BC8
:1016900018606A4B1868FFF791FE002840F0F78247
:1016A000236813F0010F00F08180082D75D00C2DF8
:1016B00071D06368B3F5803F00F09880B3F5A02F38
:1016C00000F09A805A4B1A6822F480321A601A6825
:1016D00022F480221A606368002B00F09A80FFF7E2
:1016E000B7FE0746524B1B6813F4003F5ED1FFF76D
:1016F000AFFEC01B6428F5D90320C8E24C4BD3F8D9
:1017000094301B0903F0F003A0E7FFF7BBFE0028AD
:1017100040F0B482464B1A6842F008021A601A6818
:1017200022F0F002616A0A431A605A6822F47F428A
:10173000216A42EA01225A609EE7606AFFF7A2FE30
:10174000002899D00120A2E2394B1A6842F0080221
:101750001A601A6822F0F002616A0A431A605A6835
:1017600022F47F42216A42EA01225A6098E7304A15
:10177000136823F001031360FFF76AFE07462C4B42
:101780001B6813F0020F8BD0FFF762FEC01B02280C
:10179000F5D903207BE2032E8BD1254B1B6813F474
:1017A000003F03D06368002B00F06A82236813F0C7
:1017B000020F58D0042D45D00C2D41D0E368002BEA
:1017C00000F091801A4A136843F480731360FFF7A6
:1017D0003FFE0646164B1B6813F4806F7AD1FFF765
:1017E00037FE801B0228F5D9032050E2104A136807
:1017F00043F4803313606EE703F18043A3F53C3379
:101800001A6842F480221A601A6842F480321A6020
:1018100061E7FFF71DFE0746054B1B6813F4003F09
:10182000C4D0FFF715FEC01B6428F5D903202EE2B3
:1018300000100240F43600080800002004000020D8
:10184000022EBBD1AF4B1B6813F4806F03D0E3684B
:10185000002B00F01782AB4A536823F0FE43216946
:1018600043EA01635360236813F0080F7DD0636976
:10187000002B63D0A34BD3F89430A16903F010027E
:10188000914210D003F00302022A00F0FD8113F010
:10189000010F3CD19B4AD2F8943023F01003A16988
:1018A0000B43C2F89430974AD2F8943043F00103C6
:1018B000C2F89430FFF7CCFD0646924BD3F8943033
:1018C00013F0020F51D1FFF7C3FD801B1128F4D98B
:1018D0000320DCE18B4A536823F0FE43216943EA8D
:1018E00001635360BFE7874A136823F48073136072
:1018F000FFF7AEFD0646834B1B6813F4806FB2D032
:10190000FFF7A6FD801B0228F5D90320BFE17D4A21
:10191000D2F8943023F00103C2F89430FFF798FD19
:101920000646784BD3F8943013F0020FB2D0FFF78D
:101930008FFD801B1128F4D90320A8E1714AD2F849
:10194000943023F00103C2F89430FFF781FD06467E
:101950006C4BD3F8943013F0020F06D0FFF778FDEC
:10196000801B1128F4D9032091E1236813F0040FA0
:1019700000F08D80634B9B6D13F0805F2ED1614B27
:101980009A6D42F080529A659B6D03F080530193EB
:10199000019B01265C4B1B6813F4807F20D0A36859
:1019A00013F0010F38D05749D1F8902022F080026F
:1019B00003F080031343C1F89030A36813F0040FC1
:1019C00022D0D1F8902042F00402C1F89020D1F842
:1019D000902042F00102C1F890202AE00026D9E7C9
:1019E000494A136843F480731360FFF731FD0746DB
:1019F000454B1B6813F4807FD1D1FFF729FDC01B35
:101A00000228F5D9032042E13E4AD2F8903043F053
:101A10000103C2F890300CE03A4BD3F8902022F04A
:101A20000102C3F89020D3F8902022F00402C3F8FA
:101A30009020A3688BB1FFF70BFD0746314BD3F81D
:101A4000903013F0020F21D1FFF702FDC01B41F2CD
:101A500088339842F2D9032019E1FFF7F9FC0746D1
:101A6000284BD3F8903013F0020F08D0FFF7F0FCAA
:101A7000C01B41F288339842F2D9032007E1214A82
:101A8000D2F8903023F08003C2F89030E6B9236892
:101A900013F0200F3AD0A36AE3B11A4AD2F8983073
:101AA00043F00103C2F89830FFF7D2FC0646154B0D
:101AB000D3F8983013F0020F28D1FFF7C9FC801B30
:101AC0000228F4D90320E2E00E4A936D23F08053FC
:101AD0009365DCE70B4AD2F8983023F00103C2F893
:101AE0009830FFF7B5FC0646064BD3F8983013F054
:101AF000020F0BD0FFF7ACFC801B0228F4D90320A7
:101B0000C5E000BF0010024000700040E36A002BF7
:101B100000F0BC80022B17D00C2D00F0BC805F4A77
:101B2000136823F080731360FFF792FC04465B4B4D
:101B30001B6813F0007F00F09480FFF789FC001B06
:101B40000228F4D90320A2E0544BDB6803F0030120
:101B5000226B914216D00C2D00F09B804F4A1368E7
:101B600023F080731360FFF773FC05464B4B1B6833
:101B700013F0007F2AD0FFF76BFC401B0228F5D939
:101B8000032084E003F07002616B0139B2EB011FA6
:101B9000E1D103F4FE42A16BB2EB012FDBD103F4E0
:101BA000C001E26B5208013AB1EB425FD3D103F0BE
:101BB000C063226C5208013AB3EB426FCBD1374B72
:101BC0001B6813F0007F32D0002060E0334AD368F6
:101BD00033491940236B606B013843EA0013A06B53
:101BE00043EA0023E06B4008013843EA4053206C8D
:101BF0004008013843EA40630B43D360136843F065
:101C000080731360D36843F08073D360FFF720FCC8
:101C10000446224B1B6813F0007F06D1FFF718FC27
:101C2000001B0228F5D9032031E000202FE01B4BD8
:101C30001A6842F080721A60DA6842F08072DA60E4
:101C4000FFF706FC0446154B1B6813F0007F06D116
:101C5000FFF7FEFB031B022BF5D9032017E0002042
:101C600015E00E4AD36823F0887323F00303D36092
:101C700000200CE001207047012008E0012006E070
:101C8000012004E0012002E0012000E0002003B078
:101C9000F0BD0120FBE70120F9E700BF0010024082
:101CA0008C809FF9002800F0AF8070B50D46044687
:101CB000594B1B6803F007038B420BD2564A13683B
:101CC00023F007030B431360136803F007038B42F1
:101CD00040F09C80236813F0020F0CD0A2684F4B99
:101CE0009B6803F0F0039A4205D94C498B6823F0B6
:101CF000F0031A438A60236813F0010F39D0636838
:101D0000032B09D0022B26D063BB444A126812F081
:101D1000020F06D1012076E0404A126812F0007FDF
:101D200076D03E498A6822F0030213438B60FFF7A6
:101D30008FFB0646394B9B6803F00C036268B3EBDC
:101D4000820F16D0FFF784FB801B41F28833984244
:101D5000F0D9032057E0314A126812F4003FE0D175
:101D6000012050E02D4A126812F4806FD9D1012071
:101D700049E0236813F0020F0CD0A268274B9B6840
:101D800003F0F0039A4205D224498B6823F0F00354
:101D90001A438A60204B1B6803F00703AB420AD941
:101DA0001D4A136823F007032B431360136803F0E5
:101DB0000703AB422ED1236813F0040F06D0174A55
:101DC000936823F4E063E1680B439360236813F0A6
:101DD000080F07D0114A936823F46053216943EA3E
:101DE000C1039360FFF796FB0C4B9B68C3F303138F
:101DF0000B4AD35C03F01F03D8400A4B18600A4B10
:101E00001868FFF7DBFA70BD012070470120FAE780
:101E10000120F8E70120F6E7002002400010024010
:101E2000F43600080800002004000020014B186868
:101E3000704700BF0800002008B5FFF7F7FF054B0B
:101E40009B68C3F30223044AD35C03F01F03D8400A
:101E500008BD00BF001002400437000808B5FFF7B6
:101E6000E5FF054B9B68C3F3C223044AD35C03F030
:101E70001F03D84008BD00BF00100240043700080F
:101E8000F0B583B00446036813F4003F69D0874B74
:101E90009B6D13F0805F1ED1844B9A6D42F080528F
:101EA0009A659B6D03F080530193019B0126804A44
:101EB000136843F480731360FFF7CAFA05467C4B3E
:101EC0001B6813F4807F08D1FFF7C2FA401B022879
:101ED000F5D9032502E00026E9E7002545BB734B51
:101EE000D3F8903013F4407315D0226B9A4212D07D
:101EF0006E4AD2F8903023F44073D2F8901041F437
:101F00008031C2F89010D2F8901021F48031C2F8DC
:101F10009010C2F8903013F0010F10D145B9634A08
:101F2000D2F8903023F44073216B0B43C2F8903009
:101F3000C6B15E4A936D23F08053936512E0FFF7BC
:101F400087FA0746594BD3F8903013F0020FE5D1CA
:101F5000FFF77EFAC01B41F288339842F2D903257D
:101F6000DCE70025236813F0010F08D04F4AD2F8B0
:101F7000883023F0030361680B43C2F8883023687C
:101F800013F0020F08D0494AD2F8883023F00C032E
:101F9000A1680B43C2F88830236813F0040F08D0FF
:101FA000424AD2F8883023F03003E1680B43C2F88C
:101FB0008830236813F0200F08D03C4AD2F88830CC
:101FC00023F4406321690B43C2F88830236813F47B
:101FD000007F08D0354AD2F8883023F44023216AA4
:101FE0000B43C2F88830236813F4806F08D02F4A5F
:101FF000D2F8883023F44013616A0B43C2F888306A
:10200000236813F0400F08D0284AD2F8883023F410
:10201000405361690B43C2F88830236813F0800F86
:1020200008D0224AD2F8883023F44043A1690B43F8
:10203000C2F88830236813F4807F08D01B4AD2F896
:10204000883023F44033E1690B43C2F888302368B9
:1020500013F4005F0CD0154AD2F8883023F04063A7
:10206000A16A0B43C2F88830A36AB3F1006F13D0A2
:10207000236813F4802F0CD00C4AD2F8883023F058
:102080004063E16A0B43C2F88830E36AB3F1006F42
:1020900007D0284603B0F0BDD36843F48013D36063
:1020A000E6E7D36843F48013D360F2E70010024000
:1020B00000700040F0B583B0002362E085685E00E8
:1020C0000324B44025EA0405CC68B4402C43846062
:1020D000446824EA0C0C4C68C4F300149C4044EAA5
:1020E0000C0444605EE0DD08083550F8256003F01C
:1020F00007044FEA840C0F2404FA0CF426EA040EB9
:102100000C6904FA0CF444EA0E0440F8254060E03F
:10211000032400E0002404FA0EF42C430CF1020C1A
:102120004F4D45F82C404F4CA568D44325EA020694
:102130004F6817F4801F01D042EA0506494DAE6092
:10214000ED6804EA05064F6817F4001F01D042EA63
:102150000506444DEE606D6804EA05064F6817F405
:10216000003F01D042EA05063E4D6E602D682C40CE
:102170004E6816F4803F01D042EA0504394A1460E3
:1021800001330A6832FA03F468D04FF0010C0CFAFC
:1021900003FC1CEA0202F3D04C6804F00304013C87
:1021A000012C8BD94C6804F00304032C0CD0C468B8
:1021B0005D004FF0030C0CFA05FC24EA0C0C8C6853
:1021C000AC4044EA0C04C4604C6804F00304022CE4
:1021D00089D004684FEA430E4FF0030C0CFA0EFC52
:1021E00024EA0C0C4C6804F0030404FA0EF444EAEC
:1021F0000C0404604C6814F4403FC1D01A4C256EA6
:1022000045F001052566246E04F001040194019C4B
:102210004FEA930C0CF10205114C54F8255003F0D1
:1022200003044FEA840E0F2404FA0EF425EA040591
:10223000B0F1904F3FF46EAF0C4CA0420AD004F5C1
:102240008064A04208D004F58064A0423FF460AFEF
:10225000072460E701245EE702245CE703B0F0BDD9
:10226000000001400004014000100240000400484A
:102270000AB18161704781627047436901EA0302D4
:1022800021EA030141EA024181617047024B18686B
:1022900000F4C060704700BF00700040B0F5007FE0
:1022A0000FD01F4B1B6803F4C063B3F5806F34D0AD
:1022B0001B4A136823F4C06343F480631360002057
:1022C0007047174B1B6803F4C063B3F5007F20D041
:1022D000134A136823F4C06343F400731360114B73
:1022E0001B68322202FB03F30F4AA2FB03239B0C61
:1022F000013300E0013B0A4A526912F4806F01D0B9
:10230000002BF7D1064B5B6913F4806F03D10020DB
:10231000704700207047032070470020704700BFBF
:10232000007000400800002083DE1B43074AD3688A
:1023300023F4E0631B041B0C000200F4E060034381
:1023400043F0BF6343F40033D360704700ED00E017
:1023500000B5194BDB68C3F30223C3F1070CBCF1D2
:10236000040F28BF4FF0040C03F1040EBEF1060F5A
:1023700018D9033B4FF0FF3E0EFA0CFC21EA0C018A
:1023800099400EFA03F322EA0303194300280BDBFA
:102390000901C9B200F1604000F5614080F8001306
:1023A0005DF804FB0023E5E700F00F000901C9B266
:1023B000024B1954F4E700BF00ED00E014ED00E01B
:1023C0000138B0F1807F0BD24FF0E0235861054A0D
:1023D000F02182F823100020986107221A617047CB
:1023E0000120704700ED00E010B5044601688368E5
:1023F0000269134342691343C26913430868954A4B
:10240000024013430B602268536823F44053E16891
:102410000B435360A16922688F4B9A4201D0236A13
:102420001943936823F430630B43936023688B4A0A
:1024300093421FD08A4A934230D08A4A934246D070
:10244000854A934255D0102283498B427AD0E06965
:10245000B0F5004F00F0A680082A00F20F81DFE8F7
:1024600012F0CE00E500CC000D01E8000D010D01D9
:102470000D01EB0002F55842D2F8882002F0030269
:10248000032A09D8DFE802F002044A060122DBE74A
:102490000422D9E70822D7E71022D5E702F5E63271
:1024A000D2F8882002F00C020C2A0ED8DFE802F0E5
:1024B000070D0D0D090D0D0D380D0D0D0B00002232
:1024C000C2E70422C0E70822BEE71022BCE702F5FB
:1024D000E432D2F8882002F03002202A22D004D838
:1024E00012B3102A22D10422AEE7302A20D10822CA
:1024F000AAE702F5C832D2F8882002F44062B2F5A9
:10250000006F17D005D8BAB1B2F5806F16D104228A
:102510009AE7B2F5406F13D1082295E7022293E7BC
:10252000022291E702228FE700228DE710228BE73B
:10253000102289E7022287E7002285E7102283E73D
:10254000102281E7082A7AD8DFE802F008792A7990
:102550002779797905004FF4004003E0FFF76CFC20
:1025600000286ED0626802EB420383426BD8B0EB66
:10257000023F6AD8010E00025308C0184FF0000352
:1025800041F10001FDF77CFEA0F54072364B9A4206
:102590005DD82368D860002044E0FEF7BBFFDFE78A
:1025A0003248DFE7082A63D8DFE802F00721056236
:1025B000246262620B002D4803E0FFF73DFC002817
:1025C00058D06268530803EB4000B0FBF2F0A0F172
:1025D00010024FF6EF739A424ED883B223F00F03E6
:1025E000C0F3420018432368D86000201AE0FFF7C8
:1025F00035FCE4E7FEF78EFFE1E71C4803E0FFF758
:102600001BFC00283CD0636800EB5300B0FBF3F0E8
:10261000A0F110024FF6EF739A4233D8236880B2CC
:10262000D860002000236366A36610BDFFF716FC88
:10263000E7E7FEF76FFFE4E74FF40040E3E7012030
:10264000F0E70020EEE70120ECE70120EAE70120B7
:10265000E8E700BFF369FFEF008000400038014069
:102660000044004000480040FFFC0F000024F4003C
:102670000120D7E70020D5E70120D3E70120D1E7EB
:102680000020CFE70120CDE7436A13F0010F06D009
:102690000268536823F40033816A0B435360436A32
:1026A00013F0020F06D00268536823F48033C16A26
:1026B0000B435360436A13F0040F06D0026853685B
:1026C00023F48023016B0B435360436A13F0080F1C
:1026D00006D00268536823F40043416B0B435360F8
:1026E000436A13F0100F06D00268936823F48053F6
:1026F000816B0B439360436A13F0200F06D002688E
:10270000936823F40053C16B0B439360436A13F047
:10271000400F0AD00268536823F48013016C0B4306
:102720005360036CB3F5801F0BD0436A13F0800F26
:1027300006D00268536823F40023816C0B43536076
:1027400070470268536823F4C003416C0B43536025
:10275000EBE72DE9F84305460F4616469946DDF8A6
:1027600020802C68E46937EA04030CBF4FF0010CA9
:102770004FF0000CB44553D1B8F1FF3FF1D0FEF754
:1027800067FEA0EB090040452DD8B8F1000F2AD014
:102790002B681A6812F0040FE3D0DA6912F4006FA4
:1027A000DFD04FF400621A622A6852E8003F23F437
:1027B000D07342E800310029F6D12A6802F10803FB
:1027C00053E8003F23F00103083242E800310029BA
:1027D000F3D12023AB67EB67C5F88030002385F881
:1027E000743003201DE02A6852E8003F23F4D073C0
:1027F00042E800310029F6D12A6802F1080353E8C3
:10280000003F23F00103083242E800310029F3D1F0
:102810002023AB67EB67002385F87430032000E0CA
:102820000020BDE8F8832DE9F04182B01E46836F99
:10283000202B56D104460D469046002955D0002A3B
:1028400055D090F87430012B53D0012380F87430A8
:102850000023C0F8803021238367FEF7F9FD074687
:10286000A4F85080A4F85280A368B3F5805F05D027
:102870004FF00008002384F8743014E0236913B18A
:102880004FF00008F6E7A8460025F3E738F8023BCA
:102890002268C3F308031385B4F8522092B2013AB8
:1028A00092B2A4F85220B4F852309BB273B10096A1
:1028B0003B46002280212046FFF74BFFD8B9002D70
:1028C000E4D0236815F8012B1A85E5E700963B460E
:1028D000002240212046FFF73CFF70B92023A36768
:1028E00000E0022002B0BDE8F0810120FAE70120FB
:1028F000F8E70220F6E70320F4E70320F2E730B51B
:1029000083B004460023C0F88030FEF7A1FD0546E1
:102910002268126812F0080F0DD123681B6813F0AB
:10292000040F16D12023A367E3670020206684F8F4
:10293000740003B030BD6FF07E4300930346002265
:102940004FF400112046FFF704FF0028E5D00320D4
:10295000EFE76FF07E4300932B4600224FF4800197
:102960002046FFF7F6FE0028DCD00320E1E768B33D
:1029700010B50446836F03B32423A367226813684A
:1029800023F0010313602046FFF72EFD012813D02A
:10299000636ABBB92268536823F49043536022688A
:1029A000936823F02A0393602268136843F00103BD
:1029B00013602046FFF7A3FF10BD80F87430FDF7C9
:1029C000AFFFD9E72046FFF75FFEE3E7012070473E
:1029D000034AD2F8883043F47003C2F88830704755
:1029E00000ED00E000B583B0C0B106238DF80730DC
:1029F000002201214FF09040FFF73AFC0A23012208
:102A00000DF107010748FEF794F9012211464FF036
:102A10009040FFF72DFC03B05DF804FB04238DF814
:102A20000730E5E78C01002000B583B0C0B1B923C1
:102A30008DF80730002201214FF09040FFF718FC7D
:102A40000A2301220DF107010D48FEF772F9012258
:102A500011464FF09040FFF70BFC03B05DF804FB0C
:102A6000002201214FF09040FFF702FC0120FEF709
:102A7000F5FC012211464FF09040FFF7F9FBECE71F
:102A80008C01002010B584B002238DF804301E4B59
:102A90001B78032B36D9020E8DF805200222022B5B
:102AA00007D9541CC0F3074310326A4402F80C3CA7
:102AB000E2B2541CC0F3072C02F110036B4403F87C
:102AC0000CCC931C0DF1100C5CFA84F404F80C0C83
:102AD0000332D4B25CFA83F303F80C1C0022012108
:102AE0004FF09040FFF7C4FB0A23224601A9074894
:102AF000FEF71FF9012211464FF09040FFF7B8FB97
:102B000004B010BD0122CAE7780200208C01002029
:102B100030B585B003238DF80430204B1B78032B90
:102B20003AD9020E8DF805200222022B07D9511C3A
:102B3000C0F3074310326A4402F80C3CCAB2531C7B
:102B4000C0F3072402F11001694401F80C4C023271
:102B5000D4B204AA52FA83F303F80C0C0022012128
:102B60004FF09040FFF784FB0D4D0A23224601A948
:102B70002846FEF7DEF80A2301220DF1030128465C
:102B8000FEF747FB012211464FF09040FFF770FB24
:102B90009DF8030005B030BD0122C6E77802002091
:102BA0008C01002070B582B005460C469F238DF83D
:102BB00007300022009201214FF09040FFF758FBB0
:102BC000174E0A2301220DF107013046FEF7B1F836
:102BD0000A23042269463046FEF71BFB01221146F8
:102BE0004FF09040FFF744FB9DF801307F2B0BD056
:102BF0009DF800302B709DF801209DF8023003EB0A
:102C00000223238002B070BD9DF800302B709DF828
:102C100002209DF8033003EB02232380F2E700BF7C
:102C20008C010020014B1870704700BF7802002013
:102C300008B5064B93F85D30DBB2012B01D00020C4
:102C400008BD0320FFF7EEFF0120F9E78C0100200B
:102C5000DFF834D0FFF7BCFE0C480D490D4A0023C5
:102C600002E0D458C4500433C4188C42F9D30A4A41
:102C70000A4C002301E013600432A242FBD300F0AF
:102C800011F8FDF791FDFEE700A0002000000020F4
:102C9000700000208837000870000020900200209B
:102CA000FEE7000070B50D4D0D4C641BA41000260E
:102CB000A64209D10B4D0C4C00F0B6FC641BA410CD
:102CC0000026A64205D170BD55F8043B9847013651
:102CD000EEE755F8043B98470136F2E778370008ED
:102CE00078370008783700087C370008024403462C
:102CF000934200D1704703F8011BF9E730B5144641
:102D0000002C9BB005461A4605DA8B2303604FF072
:102D1000FF301BB030BD4FF40273ADF80C3014BF60
:102D200004F1FF332346029305934FF6FF7300919E
:102D30000491ADF80E3069461E9B00F075F8431CF7
:102D4000BCBF8B232B60002CE3D0009B00221A70A9
:102D5000DFE7000007B5009313460A460146034823
:102D60000068FFF7CBFF03B05DF804FB0C00002008
:102D70002DE9F0478E689E4282460C4690461F46DB
:102D800038D88A8912F4906F32D025680969A5EB8A
:102D90000109656905EB450505EBD57501334B4424
:102DA0006D109D4238BF1D46530531D5294600F0B0
:102DB00063FB064650B90C23CAF80030A38943F0E0
:102DC0004003A3814FF0FF30BDE8F08721694A46F8
:102DD00000F0BEFAA38923F4906343F08003A3813B
:102DE000266165614E44A5EB09052660A5603E4657
:102DF000BE4200D93E4620683246414600F0B6FA4F
:102E0000A3689B1BA3602368334423600020DBE797
:102E10002A4600F0A5FB06460028E1D1216950466C
:102E200000F0BEFAC7E700002DE9F04F98468B8905
:102E30001B069DB007460D4614460ED50B6963B9B7
:102E4000402100F019FB2860286120B90C233B6069
:102E50004FF0FF30D1E040236B6100230993202322
:102E60008DF82930CDF80C803023DFF8A8818DF85B
:102E70002A304FF0010923469A4613F8012B0AB174
:102E8000252AF9D1BAEB040B0BD05B462246294622
:102E90003846FFF76DFF013000F0AA80099A5A44C6
:102EA00009929AF80030002B00F0A28000234FF026
:102EB000FF32CDE905230AF1010A049307938DF847
:102EC00053301A935446052214F8011B5148FDF75C
:102ED00087F9049AD8B9D00644BF20238DF853301F
:102EE000110744BF2B238DF853309AF800302A2B5A
:102EF00015D0079A544600204FF00A0C214611F8CD
:102F0000013B303B092B4ED9B0B1079214E0A0EB46
:102F1000080309FA03F313430493A246D2E7039B81
:102F2000191D1B680391002BBBBF5B4242F00202DC
:102F300007930793B8BF049223782E2B0CD16378A4
:102F40002A2B35D1039B1A1D1B680392002BB8BF97
:102F50004FF0FF3302340593DFF8C8A02178032235
:102F60005046FDF73DF940B14023A0EB0A0003FABB
:102F700000F0049B03430134049314F8011B26481A
:102F80008DF828100622FDF72BF9002838D0234BA6
:102F90001BBB039B073323F0070308330393099BF1
:102FA0003344099367E70CFB02320C460120A5E786
:102FB00000230134059319464FF00A0C204610F8FF
:102FC000012B303A092A03D9002BC5D00591C3E75C
:102FD0000CFB012104460123F0E703AB00932A46D2
:102FE0000F4B04A93846AFF30080421C0646D6D1E9
:102FF000AB895B063FF52CAF09981DB0BDE8F08F9B
:1030000003AB00932A46064B04A9384600F07AF831
:10301000EBE700BF3C37000846370008000000001F
:10302000712D0008423700082DE9F04716469946F1
:103030008A680B69DDF820809342B8BF134633607D
:1030400091F8432007460C460AB1013333602368E8
:10305000990642BF336802333360256815F00605D0
:1030600006D104F1190AE36832689B1AAB4226DCE8
:1030700094F84320131E226818BF012392062BD414
:1030800004F1430249463846C04701301ED0236848
:10309000E568326803F00603042B08BFAD1AA36885
:1030A00022690CBF25EAE57500259342C4BF9B1A2F
:1030B000ED1800261A34B5421AD1002008E0012389
:1030C000524649463846C047013003D14FF0FF30E1
:1030D000BDE8F0870135C6E7E1185A1C302081F8B9
:1030E0004300224494F8451082F843100233C7E7A6
:1030F0000123224649463846C0470130E6D0013612
:10310000D9E700002DE9FF470F7E0C9D782F9146EF
:1031100080460C469A4601F1430207D8622F0AD82E
:10312000002F00F0D880582F00F0A38004F1420552
:1031300084F842703AE0A7F16303152BF6D801A199
:1031400051F823F09D310008B13100082D310008FD
:103150002D3100082D3100082D310008B131000853
:103160002D3100082D3100082D3100082D310008C7
:10317000BD320008E13100089F3200082D310008FF
:103180002D310008DF3200082D310008E131000840
:103190002D3100082D310008A73200082B681A1DB8
:1031A0001B682A6004F1420584F842300123A3E041
:1031B00020682968060601F104030AD50E682B6011
:1031C000002E03DA2D23764284F843305E480A232A
:1031D00019E00E682B6010F0400F18BF36B2EFE711
:1031E0002B682068191D2960010601D51E6802E0C0
:1031F0004606FBD51E8854486F2F0CBF08230A23B0
:10320000002184F843106568A560002DA2BF2168E5
:1032100021F0040121600EB9002D4DD01546B6FBFA
:10322000F3F103FB1167C75D05F8017D3746BB422B
:103230000E46F4D9082B0BD12368DE0708D5236985
:1032400061689942DEBF302305F8013C05F1FF3586
:10325000521B2261CDF800A04B4603AA21464046EE
:10326000FFF7E2FE01304CD14FF0FF3004B0BDE873
:10327000F087354881F845702968236851F8046B58
:1032800029601D0614D5DF0744BF43F020032360E7
:103290001EB9236823F0200323601023B0E72368BE
:1032A00043F0200323607823284884F84530E3E77F
:1032B000590648BFB6B2E6E71546BBE72B68266855
:1032C0006169181D286035061B6801D5196002E088
:1032D0007006FBD51980002323611546BAE72B68D9
:1032E0001A1D2A601D68626800212846FCF778FFD5
:1032F00008B1401B606063682361002384F8433099
:10330000A8E723692A4649464046D0470130ABD05A
:1033100023689B0713D4E068039B9842B8BF184604
:10332000A4E70123324649464046D04701309BD0AE
:103330000135E36803995B1AAB42F2DCEBE7002549
:1033400004F11906F5E700BF4D3700085E370008A5
:103350000A44914200F1FF3300D1704710B511F8D3
:10336000014B03F8014F9142F9D110BD884210B5CD
:1033700001EB020402D98442234607D8431EA1422E
:1033800008D011F8012B03F8012FF8E70244014699
:103390008A4200D110BD13F8014D02F8014DF7E744
:1033A00037B5002944D051F8043C0190002BA1F11D
:1033B0000404B8BFE41800F013F91E4A019813681A
:1033C00033B96360146003B0BDE8304000F00EB95B
:1033D000A34208D9256861198B4201BF19685B684F
:1033E00049192160EDE71A465B680BB1A342FAD98F
:1033F00011685518A5420BD1246821445418A342E2
:103400001160E0D11C685B68536021441160DAE709
:1034100002D90C230360D6E7256861198B4204BFEB
:1034200019685B68636004BF491921605460CAE78A
:1034300003B030BD7C02002070B50E4E0C463168E2
:10344000054611B900F0BCF830602146284600F06E
:10345000B7F8431C0AD0C41C24F00304A04207D0D0
:10346000211A284600F0ACF8013001D14FF0FF34AA
:10347000204670BD800200202DE9F041CD1C25F0D2
:10348000030508350C2D38BF0C25002D074601DB40
:10349000A94205D90C233B6000263046BDE8F081E7
:1034A0002E4E00F09DF833681C4634BB2946384642
:1034B000FFF7C2FF431C04464DD134682646002E58
:1034C00040D123683146384604EB030800F078F811
:1034D00080453AD1216803356D1A25F0030508357A
:1034E0000C2D38BF0C2529463846FFF7A5FF0130C3
:1034F0002BD023682B4423600EE02268521B1ED47D
:103500000B2A16D96119A342256018BF5960636858
:1035100008BF316062514B60384604F10B0600F081
:1035200065F826F00706231DF21AB6D09B1BA350A0
:10353000B3E76268A3420CBF32605A60ECE72346EF
:103540006468B2E734467668B9E70C233B603846D6
:1035500000F04CF8A1E72560DEE700BF7C02002008
:103560002DE9F041804614460E4621B9BDE8F041F0
:103570001146FFF781BF2AB9FFF712FF25462846FB
:10358000BDE8F08100F038F88442074602D8B4EB79
:10359000500F12D821464046FFF76EFF054600281F
:1035A000EDD0BC422246314628BF3A46FFF7D0FE56
:1035B00031464046FFF7F4FEE1E73546DFE700001D
:1035C00038B5064D0023044608462B6000F01EF86F
:1035D000431C02D12B6803B1236038BD8402002054
:1035E000014800F011B800BF88020020014800F037
:1035F0000CB800BF8802002051F8043C181F002BB3
:10360000BCBF0B58C018704770477047044A054943
:103610001368002B08BF0B4618441060184670470B
:103620008C02002090020020F8B500BFF8BC08BC56
:103630009E467047F8B500BFF8BC08BC9E46704770
:10364000535049204652414D20626567696E20659E
:1036500072726F722E2E20636865636B20796F75AE
:103660007220636F6E6E656374696F6E2021210A2C
:103670000000000053504920626567696E20737531
:10368000636365737321210A000000004D616E754C
:10369000666163747572652049443A203078255814
:1036A0000A00000070726F647563742049443A2008
:1036B000307825580A00000044617461206174204C
:1036C0006164647265737320307830303A20256409
:1036D0000A000000456E74657220736C6565702089
:1036E0006D6F646520696E2032207365636F6E6450
:1036F000210000000000000000000000010203049F
:10370000060708090000000001020304A08601006A
:10371000400D0300801A060000350C0040420F00E7
:1037200080841E0000093D0000127A000024F4008D
:1037300000366E010048E801006CDC02232D302BBE
:103740002000686C4C0065666745464700303132A2
:1037500033343536373839414243444546003031F9
:103760003233343536373839616263646566000058
:0837700040CBFF7F01000000C7
:08377800B5010008000000008B
:083780009101000800000000A7
:10378800010000001000000000093D0010000020AA
:103798000000000000000000000000000000000021
:1037A8000000000000000000000000000000000011
:1037B8000000000000000000000000000000000001
:1037C80000000000000000000000000000000000F1
:1037D80000000000000000000000000000000000E1
:1037E80000000000000000000000000000000000D1
:0400000508002C5172
:00000001FF
